{
  "_format": "hh-sol-artifact-1",
  "contractName": "NFT",
  "sourceName": "contracts/NFT.sol",
  "abi": [
    {
      "inputs": [
        {
          "internalType": "string",
          "name": "tokenURI",
          "type": "string"
        },
        {
          "internalType": "address",
          "name": "marketAddress",
          "type": "address"
        },
        {
          "internalType": "uint256",
          "name": "_fee",
          "type": "uint256"
        },
        {
          "internalType": "address",
          "name": "_owner",
          "type": "address"
        }
      ],
      "stateMutability": "nonpayable",
      "type": "constructor"
    },
    {
      "anonymous": false,
      "inputs": [
        {
          "indexed": true,
          "internalType": "address",
          "name": "account",
          "type": "address"
        },
        {
          "indexed": true,
          "internalType": "address",
          "name": "operator",
          "type": "address"
        },
        {
          "indexed": false,
          "internalType": "bool",
          "name": "approved",
          "type": "bool"
        }
      ],
      "name": "ApprovalForAll",
      "type": "event"
    },
    {
      "anonymous": false,
      "inputs": [
        {
          "indexed": true,
          "internalType": "address",
          "name": "previousOwner",
          "type": "address"
        },
        {
          "indexed": true,
          "internalType": "address",
          "name": "newOwner",
          "type": "address"
        }
      ],
      "name": "OwnershipTransferred",
      "type": "event"
    },
    {
      "anonymous": false,
      "inputs": [
        {
          "indexed": true,
          "internalType": "address",
          "name": "operator",
          "type": "address"
        },
        {
          "indexed": true,
          "internalType": "address",
          "name": "from",
          "type": "address"
        },
        {
          "indexed": true,
          "internalType": "address",
          "name": "to",
          "type": "address"
        },
        {
          "indexed": false,
          "internalType": "uint256[]",
          "name": "ids",
          "type": "uint256[]"
        },
        {
          "indexed": false,
          "internalType": "uint256[]",
          "name": "values",
          "type": "uint256[]"
        }
      ],
      "name": "TransferBatch",
      "type": "event"
    },
    {
      "anonymous": false,
      "inputs": [
        {
          "indexed": true,
          "internalType": "address",
          "name": "operator",
          "type": "address"
        },
        {
          "indexed": true,
          "internalType": "address",
          "name": "from",
          "type": "address"
        },
        {
          "indexed": true,
          "internalType": "address",
          "name": "to",
          "type": "address"
        },
        {
          "indexed": false,
          "internalType": "uint256",
          "name": "id",
          "type": "uint256"
        },
        {
          "indexed": false,
          "internalType": "uint256",
          "name": "value",
          "type": "uint256"
        }
      ],
      "name": "TransferSingle",
      "type": "event"
    },
    {
      "anonymous": false,
      "inputs": [
        {
          "indexed": false,
          "internalType": "string",
          "name": "value",
          "type": "string"
        },
        {
          "indexed": true,
          "internalType": "uint256",
          "name": "id",
          "type": "uint256"
        }
      ],
      "name": "URI",
      "type": "event"
    },
    {
      "inputs": [
        {
          "internalType": "address",
          "name": "account",
          "type": "address"
        },
        {
          "internalType": "uint256",
          "name": "id",
          "type": "uint256"
        }
      ],
      "name": "balanceOf",
      "outputs": [
        {
          "internalType": "uint256",
          "name": "",
          "type": "uint256"
        }
      ],
      "stateMutability": "view",
      "type": "function"
    },
    {
      "inputs": [
        {
          "internalType": "address[]",
          "name": "accounts",
          "type": "address[]"
        },
        {
          "internalType": "uint256[]",
          "name": "ids",
          "type": "uint256[]"
        }
      ],
      "name": "balanceOfBatch",
      "outputs": [
        {
          "internalType": "uint256[]",
          "name": "",
          "type": "uint256[]"
        }
      ],
      "stateMutability": "view",
      "type": "function"
    },
    {
      "inputs": [
        {
          "internalType": "uint256",
          "name": "id",
          "type": "uint256"
        }
      ],
      "name": "burn",
      "outputs": [],
      "stateMutability": "nonpayable",
      "type": "function"
    },
    {
      "inputs": [],
      "name": "currentId",
      "outputs": [
        {
          "internalType": "uint256[2]",
          "name": "",
          "type": "uint256[2]"
        }
      ],
      "stateMutability": "view",
      "type": "function"
    },
    {
      "inputs": [],
      "name": "fee",
      "outputs": [
        {
          "internalType": "uint256",
          "name": "",
          "type": "uint256"
        }
      ],
      "stateMutability": "view",
      "type": "function"
    },
    {
      "inputs": [],
      "name": "getCreator",
      "outputs": [
        {
          "internalType": "address",
          "name": "",
          "type": "address"
        }
      ],
      "stateMutability": "view",
      "type": "function"
    },
    {
      "inputs": [],
      "name": "getFee",
      "outputs": [
        {
          "internalType": "uint256",
          "name": "",
          "type": "uint256"
        }
      ],
      "stateMutability": "view",
      "type": "function"
    },
    {
      "inputs": [
        {
          "internalType": "address",
          "name": "account",
          "type": "address"
        },
        {
          "internalType": "address",
          "name": "operator",
          "type": "address"
        }
      ],
      "name": "isApprovedForAll",
      "outputs": [
        {
          "internalType": "bool",
          "name": "",
          "type": "bool"
        }
      ],
      "stateMutability": "view",
      "type": "function"
    },
    {
      "inputs": [
        {
          "internalType": "address",
          "name": "receiver",
          "type": "address"
        }
      ],
      "name": "mint",
      "outputs": [],
      "stateMutability": "nonpayable",
      "type": "function"
    },
    {
      "inputs": [],
      "name": "owner",
      "outputs": [
        {
          "internalType": "address",
          "name": "",
          "type": "address"
        }
      ],
      "stateMutability": "view",
      "type": "function"
    },
    {
      "inputs": [],
      "name": "renounceOwnership",
      "outputs": [],
      "stateMutability": "nonpayable",
      "type": "function"
    },
    {
      "inputs": [
        {
          "internalType": "address",
          "name": "from",
          "type": "address"
        },
        {
          "internalType": "address",
          "name": "to",
          "type": "address"
        },
        {
          "internalType": "uint256[]",
          "name": "ids",
          "type": "uint256[]"
        },
        {
          "internalType": "uint256[]",
          "name": "amounts",
          "type": "uint256[]"
        },
        {
          "internalType": "bytes",
          "name": "data",
          "type": "bytes"
        }
      ],
      "name": "safeBatchTransferFrom",
      "outputs": [],
      "stateMutability": "nonpayable",
      "type": "function"
    },
    {
      "inputs": [
        {
          "internalType": "address",
          "name": "from",
          "type": "address"
        },
        {
          "internalType": "address",
          "name": "to",
          "type": "address"
        },
        {
          "internalType": "uint256",
          "name": "id",
          "type": "uint256"
        },
        {
          "internalType": "uint256",
          "name": "amount",
          "type": "uint256"
        },
        {
          "internalType": "bytes",
          "name": "data",
          "type": "bytes"
        }
      ],
      "name": "safeTransferFrom",
      "outputs": [],
      "stateMutability": "nonpayable",
      "type": "function"
    },
    {
      "inputs": [
        {
          "internalType": "address",
          "name": "operator",
          "type": "address"
        },
        {
          "internalType": "bool",
          "name": "approved",
          "type": "bool"
        }
      ],
      "name": "setApprovalForAll",
      "outputs": [],
      "stateMutability": "nonpayable",
      "type": "function"
    },
    {
      "inputs": [
        {
          "internalType": "bytes4",
          "name": "interfaceId",
          "type": "bytes4"
        }
      ],
      "name": "supportsInterface",
      "outputs": [
        {
          "internalType": "bool",
          "name": "",
          "type": "bool"
        }
      ],
      "stateMutability": "view",
      "type": "function"
    },
    {
      "inputs": [
        {
          "internalType": "address",
          "name": "newOwner",
          "type": "address"
        }
      ],
      "name": "transferOwnership",
      "outputs": [],
      "stateMutability": "nonpayable",
      "type": "function"
    },
    {
      "inputs": [
        {
          "internalType": "uint256",
          "name": "",
          "type": "uint256"
        }
      ],
      "name": "uri",
      "outputs": [
        {
          "internalType": "string",
          "name": "",
          "type": "string"
        }
      ],
      "stateMutability": "view",
      "type": "function"
    }
  ],
  "bytecode": "0x60806040523480156200001157600080fd5b5060405162003bd938038062003bd98339818101604052810190620000379190620004a1565b836200004981620000cf60201b60201c565b506200006a6200005e620000eb60201b60201c565b620000f360201b60201c565b6200007d836001620001b960201b60201c565b8160048190555080600660006101000a81548173ffffffffffffffffffffffffffffffffffffffff021916908373ffffffffffffffffffffffffffffffffffffffff16021790555050505050620007eb565b8060029080519060200190620000e792919062000351565b5050565b600033905090565b6000600360009054906101000a900473ffffffffffffffffffffffffffffffffffffffff16905081600360006101000a81548173ffffffffffffffffffffffffffffffffffffffff021916908373ffffffffffffffffffffffffffffffffffffffff1602179055508173ffffffffffffffffffffffffffffffffffffffff168173ffffffffffffffffffffffffffffffffffffffff167f8be0079c531659141344cd1fd0a4f28419497f9722a3daafe3b4186f6b6457e060405160405180910390a35050565b620001db620001cd620000eb60201b60201c565b8383620001df60201b60201c565b5050565b8173ffffffffffffffffffffffffffffffffffffffff168373ffffffffffffffffffffffffffffffffffffffff16141562000251576040517f08c379a000000000000000000000000000000000000000000000000000000000815260040162000248906200057b565b60405180910390fd5b80600160008573ffffffffffffffffffffffffffffffffffffffff1673ffffffffffffffffffffffffffffffffffffffff16815260200190815260200160002060008473ffffffffffffffffffffffffffffffffffffffff1673ffffffffffffffffffffffffffffffffffffffff16815260200190815260200160002060006101000a81548160ff0219169083151502179055508173ffffffffffffffffffffffffffffffffffffffff168373ffffffffffffffffffffffffffffffffffffffff167f17307eab39ab6107e8899845ad3d59bd9653f200f220920489ca2b5937696c31836040516200034491906200055e565b60405180910390a3505050565b8280546200035f906200068d565b90600052602060002090601f016020900481019282620003835760008555620003cf565b82601f106200039e57805160ff1916838001178555620003cf565b82800160010185558215620003cf579182015b82811115620003ce578251825591602001919060010190620003b1565b5b509050620003de9190620003e2565b5090565b5b80821115620003fd576000816000905550600101620003e3565b5090565b6000620004186200041284620005c6565b6200059d565b9050828152602081018484840111156200043157600080fd5b6200043e84828562000657565b509392505050565b6000815190506200045781620007b7565b92915050565b600082601f8301126200046f57600080fd5b81516200048184826020860162000401565b91505092915050565b6000815190506200049b81620007d1565b92915050565b60008060008060808587031215620004b857600080fd5b600085015167ffffffffffffffff811115620004d357600080fd5b620004e1878288016200045d565b9450506020620004f48782880162000446565b935050604062000507878288016200048a565b92505060606200051a8782880162000446565b91505092959194509250565b620005318162000621565b82525050565b600062000546602983620005fc565b9150620005538262000768565b604082019050919050565b600060208201905062000575600083018462000526565b92915050565b60006020820190508181036000830152620005968162000537565b9050919050565b6000620005a9620005bc565b9050620005b78282620006c3565b919050565b6000604051905090565b600067ffffffffffffffff821115620005e457620005e362000728565b5b620005ef8262000757565b9050602081019050919050565b600082825260208201905092915050565b60006200061a826200062d565b9050919050565b60008115159050919050565b600073ffffffffffffffffffffffffffffffffffffffff82169050919050565b6000819050919050565b60005b83811015620006775780820151818401526020810190506200065a565b8381111562000687576000848401525b50505050565b60006002820490506001821680620006a657607f821691505b60208210811415620006bd57620006bc620006f9565b5b50919050565b620006ce8262000757565b810181811067ffffffffffffffff82111715620006f057620006ef62000728565b5b80604052505050565b7f4e487b7100000000000000000000000000000000000000000000000000000000600052602260045260246000fd5b7f4e487b7100000000000000000000000000000000000000000000000000000000600052604160045260246000fd5b6000601f19601f8301169050919050565b7f455243313135353a2073657474696e6720617070726f76616c2073746174757360008201527f20666f722073656c660000000000000000000000000000000000000000000000602082015250565b620007c2816200060d565b8114620007ce57600080fd5b50565b620007dc816200064d565b8114620007e857600080fd5b50565b6133de80620007fb6000396000f3fe608060405234801561001057600080fd5b506004361061010a5760003560e01c8063715018a6116100a2578063ddca3f4311610071578063ddca3f43146102a3578063e00dd161146102c1578063e985e9c5146102df578063f242432a1461030f578063f2fde38b1461032b5761010a565b8063715018a6146102415780638da5cb5b1461024b578063a22cb46514610269578063ced72f87146102855761010a565b80632eb2c2d6116100de5780632eb2c2d6146101bd57806342966c68146101d95780634e1273f4146101f55780636a627842146102255761010a565b8062fdd58e1461010f57806301ffc9a71461013f5780630e89341c1461016f5780630ee2cb101461019f575b600080fd5b6101296004803603810190610124919061220d565b610347565b6040516101369190612a26565b60405180910390f35b610159600480360381019061015491906122b5565b610410565b6040516101669190612809565b60405180910390f35b61018960048036038101906101849190612307565b6104f2565b6040516101969190612824565b60405180910390f35b6101a7610586565b6040516101b491906126b8565b60405180910390f35b6101d760048036038101906101d29190612083565b6105b0565b005b6101f360048036038101906101ee9190612307565b610651565b005b61020f600480360381019061020a9190612249565b6106dc565b60405161021c91906127b0565b60405180910390f35b61023f600480360381019061023a919061201e565b61088d565b005b61024961093b565b005b6102536109c3565b60405161026091906126b8565b60405180910390f35b610283600480360381019061027e91906121d1565b6109ed565b005b61028d610a03565b60405161029a9190612a26565b60405180910390f35b6102ab610a0d565b6040516102b89190612a26565b60405180910390f35b6102c9610a13565b6040516102d69190612795565b60405180910390f35b6102f960048036038101906102f49190612047565b610a40565b6040516103069190612809565b60405180910390f35b61032960048036038101906103249190612142565b610ad4565b005b6103456004803603810190610340919061201e565b610b75565b005b60008073ffffffffffffffffffffffffffffffffffffffff168373ffffffffffffffffffffffffffffffffffffffff1614156103b8576040517f08c379a00000000000000000000000000000000000000000000000000000000081526004016103af90612886565b60405180910390fd5b60008083815260200190815260200160002060008473ffffffffffffffffffffffffffffffffffffffff1673ffffffffffffffffffffffffffffffffffffffff16815260200190815260200160002054905092915050565b60007fd9b67a26000000000000000000000000000000000000000000000000000000007bffffffffffffffffffffffffffffffffffffffffffffffffffffffff1916827bffffffffffffffffffffffffffffffffffffffffffffffffffffffff191614806104db57507f0e89341c000000000000000000000000000000000000000000000000000000007bffffffffffffffffffffffffffffffffffffffffffffffffffffffff1916827bffffffffffffffffffffffffffffffffffffffffffffffffffffffff1916145b806104eb57506104ea82610c6d565b5b9050919050565b60606002805461050190612cc2565b80601f016020809104026020016040519081016040528092919081815260200182805461052d90612cc2565b801561057a5780601f1061054f5761010080835404028352916020019161057a565b820191906000526020600020905b81548152906001019060200180831161055d57829003601f168201915b50505050509050919050565b6000600660009054906101000a900473ffffffffffffffffffffffffffffffffffffffff16905090565b6105b8610cd7565b73ffffffffffffffffffffffffffffffffffffffff168573ffffffffffffffffffffffffffffffffffffffff1614806105fe57506105fd856105f8610cd7565b610a40565b5b61063d576040517f08c379a000000000000000000000000000000000000000000000000000000000815260040161063490612926565b60405180910390fd5b61064a8585858585610cdf565b5050505050565b610659610cd7565b73ffffffffffffffffffffffffffffffffffffffff166106776109c3565b73ffffffffffffffffffffffffffffffffffffffff16146106cd576040517f08c379a00000000000000000000000000000000000000000000000000000000081526004016106c490612986565b60405180910390fd5b6106d93382600161104d565b50565b60608151835114610722576040517f08c379a0000000000000000000000000000000000000000000000000000000008152600401610719906129c6565b60405180910390fd5b6000835167ffffffffffffffff811115610765577f4e487b7100000000000000000000000000000000000000000000000000000000600052604160045260246000fd5b6040519080825280602002602001820160405280156107935781602001602082028036833780820191505090505b50905060005b84518110156108825761082c8582815181106107de577f4e487b7100000000000000000000000000000000000000000000000000000000600052603260045260246000fd5b602002602001015185838151811061081f577f4e487b7100000000000000000000000000000000000000000000000000000000600052603260045260246000fd5b6020026020010151610347565b828281518110610865577f4e487b7100000000000000000000000000000000000000000000000000000000600052603260045260246000fd5b6020026020010181815250508061087b90612d25565b9050610799565b508091505092915050565b610895610cd7565b73ffffffffffffffffffffffffffffffffffffffff166108b36109c3565b73ffffffffffffffffffffffffffffffffffffffff1614610909576040517f08c379a000000000000000000000000000000000000000000000000000000000815260040161090090612986565b60405180910390fd5b6109136005611294565b6109388161092160056112aa565b6001604051806020016040528060008152506112b8565b50565b610943610cd7565b73ffffffffffffffffffffffffffffffffffffffff166109616109c3565b73ffffffffffffffffffffffffffffffffffffffff16146109b7576040517f08c379a00000000000000000000000000000000000000000000000000000000081526004016109ae90612986565b60405180910390fd5b6109c16000611469565b565b6000600360009054906101000a900473ffffffffffffffffffffffffffffffffffffffff16905090565b6109ff6109f8610cd7565b838361152f565b5050565b6000600454905090565b60045481565b610a1b611dff565b6040518060400160405280610a3060056112aa565b8152602001600454815250905090565b6000600160008473ffffffffffffffffffffffffffffffffffffffff1673ffffffffffffffffffffffffffffffffffffffff16815260200190815260200160002060008373ffffffffffffffffffffffffffffffffffffffff1673ffffffffffffffffffffffffffffffffffffffff16815260200190815260200160002060009054906101000a900460ff16905092915050565b610adc610cd7565b73ffffffffffffffffffffffffffffffffffffffff168573ffffffffffffffffffffffffffffffffffffffff161480610b225750610b2185610b1c610cd7565b610a40565b5b610b61576040517f08c379a0000000000000000000000000000000000000000000000000000000008152600401610b58906128e6565b60405180910390fd5b610b6e858585858561169c565b5050505050565b610b7d610cd7565b73ffffffffffffffffffffffffffffffffffffffff16610b9b6109c3565b73ffffffffffffffffffffffffffffffffffffffff1614610bf1576040517f08c379a0000000000000000000000000000000000000000000000000000000008152600401610be890612986565b60405180910390fd5b600073ffffffffffffffffffffffffffffffffffffffff168173ffffffffffffffffffffffffffffffffffffffff161415610c61576040517f08c379a0000000000000000000000000000000000000000000000000000000008152600401610c58906128a6565b60405180910390fd5b610c6a81611469565b50565b60007f01ffc9a7000000000000000000000000000000000000000000000000000000007bffffffffffffffffffffffffffffffffffffffffffffffffffffffff1916827bffffffffffffffffffffffffffffffffffffffffffffffffffffffff1916149050919050565b600033905090565b8151835114610d23576040517f08c379a0000000000000000000000000000000000000000000000000000000008152600401610d1a906129e6565b60405180910390fd5b600073ffffffffffffffffffffffffffffffffffffffff168473ffffffffffffffffffffffffffffffffffffffff161415610d93576040517f08c379a0000000000000000000000000000000000000000000000000000000008152600401610d8a90612906565b60405180910390fd5b6000610d9d610cd7565b9050610dad818787878787611938565b60005b8451811015610faa576000858281518110610df4577f4e487b7100000000000000000000000000000000000000000000000000000000600052603260045260246000fd5b602002602001015190506000858381518110610e39577f4e487b7100000000000000000000000000000000000000000000000000000000600052603260045260246000fd5b60200260200101519050600080600084815260200190815260200160002060008b73ffffffffffffffffffffffffffffffffffffffff1673ffffffffffffffffffffffffffffffffffffffff16815260200190815260200160002054905081811015610eda576040517f08c379a0000000000000000000000000000000000000000000000000000000008152600401610ed190612966565b60405180910390fd5b81810360008085815260200190815260200160002060008c73ffffffffffffffffffffffffffffffffffffffff1673ffffffffffffffffffffffffffffffffffffffff168152602001908152602001600020819055508160008085815260200190815260200160002060008b73ffffffffffffffffffffffffffffffffffffffff1673ffffffffffffffffffffffffffffffffffffffff1681526020019081526020016000206000828254610f8f9190612bb6565b9250508190555050505080610fa390612d25565b9050610db0565b508473ffffffffffffffffffffffffffffffffffffffff168673ffffffffffffffffffffffffffffffffffffffff168273ffffffffffffffffffffffffffffffffffffffff167f4a39dc06d4c0dbc64b70af90fd698a233a518aa5d07e595d983b8c0526c8f7fb87876040516110219291906127d2565b60405180910390a4611037818787878787611940565b611045818787878787611948565b505050505050565b600073ffffffffffffffffffffffffffffffffffffffff168373ffffffffffffffffffffffffffffffffffffffff1614156110bd576040517f08c379a00000000000000000000000000000000000000000000000000000000081526004016110b490612946565b60405180910390fd5b60006110c7610cd7565b905060006110d484611b2f565b905060006110e184611b2f565b905061110183876000858560405180602001604052806000815250611938565b600080600087815260200190815260200160002060008873ffffffffffffffffffffffffffffffffffffffff1673ffffffffffffffffffffffffffffffffffffffff16815260200190815260200160002054905084811015611198576040517f08c379a000000000000000000000000000000000000000000000000000000000815260040161118f906128c6565b60405180910390fd5b84810360008088815260200190815260200160002060008973ffffffffffffffffffffffffffffffffffffffff1673ffffffffffffffffffffffffffffffffffffffff16815260200190815260200160002081905550600073ffffffffffffffffffffffffffffffffffffffff168773ffffffffffffffffffffffffffffffffffffffff168573ffffffffffffffffffffffffffffffffffffffff167fc3d58168c5ae7397731d063d5bbf3d657854427343f4c083240f7aacaa2d0f628989604051611265929190612a41565b60405180910390a461128b84886000868660405180602001604052806000815250611940565b50505050505050565b6001816000016000828254019250508190555050565b600081600001549050919050565b600073ffffffffffffffffffffffffffffffffffffffff168473ffffffffffffffffffffffffffffffffffffffff161415611328576040517f08c379a000000000000000000000000000000000000000000000000000000000815260040161131f90612a06565b60405180910390fd5b6000611332610cd7565b9050600061133f85611b2f565b9050600061134c85611b2f565b905061135d83600089858589611938565b8460008088815260200190815260200160002060008973ffffffffffffffffffffffffffffffffffffffff1673ffffffffffffffffffffffffffffffffffffffff16815260200190815260200160002060008282546113bc9190612bb6565b925050819055508673ffffffffffffffffffffffffffffffffffffffff16600073ffffffffffffffffffffffffffffffffffffffff168473ffffffffffffffffffffffffffffffffffffffff167fc3d58168c5ae7397731d063d5bbf3d657854427343f4c083240f7aacaa2d0f62898960405161143a929190612a41565b60405180910390a461145183600089858589611940565b61146083600089898989611bf5565b50505050505050565b6000600360009054906101000a900473ffffffffffffffffffffffffffffffffffffffff16905081600360006101000a81548173ffffffffffffffffffffffffffffffffffffffff021916908373ffffffffffffffffffffffffffffffffffffffff1602179055508173ffffffffffffffffffffffffffffffffffffffff168173ffffffffffffffffffffffffffffffffffffffff167f8be0079c531659141344cd1fd0a4f28419497f9722a3daafe3b4186f6b6457e060405160405180910390a35050565b8173ffffffffffffffffffffffffffffffffffffffff168373ffffffffffffffffffffffffffffffffffffffff16141561159e576040517f08c379a0000000000000000000000000000000000000000000000000000000008152600401611595906129a6565b60405180910390fd5b80600160008573ffffffffffffffffffffffffffffffffffffffff1673ffffffffffffffffffffffffffffffffffffffff16815260200190815260200160002060008473ffffffffffffffffffffffffffffffffffffffff1673ffffffffffffffffffffffffffffffffffffffff16815260200190815260200160002060006101000a81548160ff0219169083151502179055508173ffffffffffffffffffffffffffffffffffffffff168373ffffffffffffffffffffffffffffffffffffffff167f17307eab39ab6107e8899845ad3d59bd9653f200f220920489ca2b5937696c318360405161168f9190612809565b60405180910390a3505050565b600073ffffffffffffffffffffffffffffffffffffffff168473ffffffffffffffffffffffffffffffffffffffff16141561170c576040517f08c379a000000000000000000000000000000000000000000000000000000000815260040161170390612906565b60405180910390fd5b6000611716610cd7565b9050600061172385611b2f565b9050600061173085611b2f565b9050611740838989858589611938565b600080600088815260200190815260200160002060008a73ffffffffffffffffffffffffffffffffffffffff1673ffffffffffffffffffffffffffffffffffffffff168152602001908152602001600020549050858110156117d7576040517f08c379a00000000000000000000000000000000000000000000000000000000081526004016117ce90612966565b60405180910390fd5b85810360008089815260200190815260200160002060008b73ffffffffffffffffffffffffffffffffffffffff1673ffffffffffffffffffffffffffffffffffffffff168152602001908152602001600020819055508560008089815260200190815260200160002060008a73ffffffffffffffffffffffffffffffffffffffff1673ffffffffffffffffffffffffffffffffffffffff168152602001908152602001600020600082825461188c9190612bb6565b925050819055508773ffffffffffffffffffffffffffffffffffffffff168973ffffffffffffffffffffffffffffffffffffffff168573ffffffffffffffffffffffffffffffffffffffff167fc3d58168c5ae7397731d063d5bbf3d657854427343f4c083240f7aacaa2d0f628a8a604051611909929190612a41565b60405180910390a461191f848a8a86868a611940565b61192d848a8a8a8a8a611bf5565b505050505050505050565b505050505050565b505050505050565b6119678473ffffffffffffffffffffffffffffffffffffffff16611ddc565b15611b27578373ffffffffffffffffffffffffffffffffffffffff1663bc197c8187878686866040518663ffffffff1660e01b81526004016119ad9594939291906126d3565b602060405180830381600087803b1580156119c757600080fd5b505af19250505080156119f857506040513d601f19601f820116820180604052508101906119f591906122de565b60015b611a9e57611a04612dfb565b806308c379a01415611a615750611a196132b6565b80611a245750611a63565b806040517f08c379a0000000000000000000000000000000000000000000000000000000008152600401611a589190612824565b60405180910390fd5b505b6040517f08c379a0000000000000000000000000000000000000000000000000000000008152600401611a9590612846565b60405180910390fd5b63bc197c8160e01b7bffffffffffffffffffffffffffffffffffffffffffffffffffffffff1916817bffffffffffffffffffffffffffffffffffffffffffffffffffffffff191614611b25576040517f08c379a0000000000000000000000000000000000000000000000000000000008152600401611b1c90612866565b60405180910390fd5b505b505050505050565b60606000600167ffffffffffffffff811115611b74577f4e487b7100000000000000000000000000000000000000000000000000000000600052604160045260246000fd5b604051908082528060200260200182016040528015611ba25781602001602082028036833780820191505090505b5090508281600081518110611be0577f4e487b7100000000000000000000000000000000000000000000000000000000600052603260045260246000fd5b60200260200101818152505080915050919050565b611c148473ffffffffffffffffffffffffffffffffffffffff16611ddc565b15611dd4578373ffffffffffffffffffffffffffffffffffffffff1663f23a6e6187878686866040518663ffffffff1660e01b8152600401611c5a95949392919061273b565b602060405180830381600087803b158015611c7457600080fd5b505af1925050508015611ca557506040513d601f19601f82011682018060405250810190611ca291906122de565b60015b611d4b57611cb1612dfb565b806308c379a01415611d0e5750611cc66132b6565b80611cd15750611d10565b806040517f08c379a0000000000000000000000000000000000000000000000000000000008152600401611d059190612824565b60405180910390fd5b505b6040517f08c379a0000000000000000000000000000000000000000000000000000000008152600401611d4290612846565b60405180910390fd5b63f23a6e6160e01b7bffffffffffffffffffffffffffffffffffffffffffffffffffffffff1916817bffffffffffffffffffffffffffffffffffffffffffffffffffffffff191614611dd2576040517f08c379a0000000000000000000000000000000000000000000000000000000008152600401611dc990612866565b60405180910390fd5b505b505050505050565b6000808273ffffffffffffffffffffffffffffffffffffffff163b119050919050565b6040518060400160405280600290602082028036833780820191505090505090565b6000611e34611e2f84612a8f565b612a6a565b90508083825260208201905082856020860282011115611e5357600080fd5b60005b85811015611e835781611e698882611f37565b845260208401935060208301925050600181019050611e56565b5050509392505050565b6000611ea0611e9b84612abb565b612a6a565b90508083825260208201905082856020860282011115611ebf57600080fd5b60005b85811015611eef5781611ed58882612009565b845260208401935060208301925050600181019050611ec2565b5050509392505050565b6000611f0c611f0784612ae7565b612a6a565b905082815260208101848484011115611f2457600080fd5b611f2f848285612c80565b509392505050565b600081359050611f468161334c565b92915050565b600082601f830112611f5d57600080fd5b8135611f6d848260208601611e21565b91505092915050565b600082601f830112611f8757600080fd5b8135611f97848260208601611e8d565b91505092915050565b600081359050611faf81613363565b92915050565b600081359050611fc48161337a565b92915050565b600081519050611fd98161337a565b92915050565b600082601f830112611ff057600080fd5b8135612000848260208601611ef9565b91505092915050565b60008135905061201881613391565b92915050565b60006020828403121561203057600080fd5b600061203e84828501611f37565b91505092915050565b6000806040838503121561205a57600080fd5b600061206885828601611f37565b925050602061207985828601611f37565b9150509250929050565b600080600080600060a0868803121561209b57600080fd5b60006120a988828901611f37565b95505060206120ba88828901611f37565b945050604086013567ffffffffffffffff8111156120d757600080fd5b6120e388828901611f76565b935050606086013567ffffffffffffffff81111561210057600080fd5b61210c88828901611f76565b925050608086013567ffffffffffffffff81111561212957600080fd5b61213588828901611fdf565b9150509295509295909350565b600080600080600060a0868803121561215a57600080fd5b600061216888828901611f37565b955050602061217988828901611f37565b945050604061218a88828901612009565b935050606061219b88828901612009565b925050608086013567ffffffffffffffff8111156121b857600080fd5b6121c488828901611fdf565b9150509295509295909350565b600080604083850312156121e457600080fd5b60006121f285828601611f37565b925050602061220385828601611fa0565b9150509250929050565b6000806040838503121561222057600080fd5b600061222e85828601611f37565b925050602061223f85828601612009565b9150509250929050565b6000806040838503121561225c57600080fd5b600083013567ffffffffffffffff81111561227657600080fd5b61228285828601611f4c565b925050602083013567ffffffffffffffff81111561229f57600080fd5b6122ab85828601611f76565b9150509250929050565b6000602082840312156122c757600080fd5b60006122d584828501611fb5565b91505092915050565b6000602082840312156122f057600080fd5b60006122fe84828501611fca565b91505092915050565b60006020828403121561231957600080fd5b600061232784828501612009565b91505092915050565b600061233c838361269a565b60208301905092915050565b61235181612c0c565b82525050565b61236081612b32565b61236a8184612b78565b925061237582612b18565b8060005b838110156123a657815161238d8782612330565b965061239883612b5e565b925050600181019050612379565b505050505050565b60006123b982612b3d565b6123c38185612b83565b93506123ce83612b22565b8060005b838110156123ff5781516123e68882612330565b97506123f183612b6b565b9250506001810190506123d2565b5085935050505092915050565b61241581612c1e565b82525050565b600061242682612b48565b6124308185612b94565b9350612440818560208601612c8f565b61244981612e1d565b840191505092915050565b600061245f82612b53565b6124698185612ba5565b9350612479818560208601612c8f565b61248281612e1d565b840191505092915050565b600061249a603483612ba5565b91506124a582612e3b565b604082019050919050565b60006124bd602883612ba5565b91506124c882612e8a565b604082019050919050565b60006124e0602b83612ba5565b91506124eb82612ed9565b604082019050919050565b6000612503602683612ba5565b915061250e82612f28565b604082019050919050565b6000612526602483612ba5565b915061253182612f77565b604082019050919050565b6000612549602983612ba5565b915061255482612fc6565b604082019050919050565b600061256c602583612ba5565b915061257782613015565b604082019050919050565b600061258f603283612ba5565b915061259a82613064565b604082019050919050565b60006125b2602383612ba5565b91506125bd826130b3565b604082019050919050565b60006125d5602a83612ba5565b91506125e082613102565b604082019050919050565b60006125f8602083612ba5565b915061260382613151565b602082019050919050565b600061261b602983612ba5565b91506126268261317a565b604082019050919050565b600061263e602983612ba5565b9150612649826131c9565b604082019050919050565b6000612661602883612ba5565b915061266c82613218565b604082019050919050565b6000612684602183612ba5565b915061268f82613267565b604082019050919050565b6126a381612c76565b82525050565b6126b281612c76565b82525050565b60006020820190506126cd6000830184612348565b92915050565b600060a0820190506126e86000830188612348565b6126f56020830187612348565b818103604083015261270781866123ae565b9050818103606083015261271b81856123ae565b9050818103608083015261272f818461241b565b90509695505050505050565b600060a0820190506127506000830188612348565b61275d6020830187612348565b61276a60408301866126a9565b61277760608301856126a9565b8181036080830152612789818461241b565b90509695505050505050565b60006040820190506127aa6000830184612357565b92915050565b600060208201905081810360008301526127ca81846123ae565b905092915050565b600060408201905081810360008301526127ec81856123ae565b9050818103602083015261280081846123ae565b90509392505050565b600060208201905061281e600083018461240c565b92915050565b6000602082019050818103600083015261283e8184612454565b905092915050565b6000602082019050818103600083015261285f8161248d565b9050919050565b6000602082019050818103600083015261287f816124b0565b9050919050565b6000602082019050818103600083015261289f816124d3565b9050919050565b600060208201905081810360008301526128bf816124f6565b9050919050565b600060208201905081810360008301526128df81612519565b9050919050565b600060208201905081810360008301526128ff8161253c565b9050919050565b6000602082019050818103600083015261291f8161255f565b9050919050565b6000602082019050818103600083015261293f81612582565b9050919050565b6000602082019050818103600083015261295f816125a5565b9050919050565b6000602082019050818103600083015261297f816125c8565b9050919050565b6000602082019050818103600083015261299f816125eb565b9050919050565b600060208201905081810360008301526129bf8161260e565b9050919050565b600060208201905081810360008301526129df81612631565b9050919050565b600060208201905081810360008301526129ff81612654565b9050919050565b60006020820190508181036000830152612a1f81612677565b9050919050565b6000602082019050612a3b60008301846126a9565b92915050565b6000604082019050612a5660008301856126a9565b612a6360208301846126a9565b9392505050565b6000612a74612a85565b9050612a808282612cf4565b919050565b6000604051905090565b600067ffffffffffffffff821115612aaa57612aa9612dcc565b5b602082029050602081019050919050565b600067ffffffffffffffff821115612ad657612ad5612dcc565b5b602082029050602081019050919050565b600067ffffffffffffffff821115612b0257612b01612dcc565b5b612b0b82612e1d565b9050602081019050919050565b6000819050919050565b6000819050602082019050919050565b600060029050919050565b600081519050919050565b600081519050919050565b600081519050919050565b6000602082019050919050565b6000602082019050919050565b600081905092915050565b600082825260208201905092915050565b600082825260208201905092915050565b600082825260208201905092915050565b6000612bc182612c76565b9150612bcc83612c76565b9250827fffffffffffffffffffffffffffffffffffffffffffffffffffffffffffffffff03821115612c0157612c00612d6e565b5b828201905092915050565b6000612c1782612c56565b9050919050565b60008115159050919050565b60007fffffffff0000000000000000000000000000000000000000000000000000000082169050919050565b600073ffffffffffffffffffffffffffffffffffffffff82169050919050565b6000819050919050565b82818337600083830152505050565b60005b83811015612cad578082015181840152602081019050612c92565b83811115612cbc576000848401525b50505050565b60006002820490506001821680612cda57607f821691505b60208210811415612cee57612ced612d9d565b5b50919050565b612cfd82612e1d565b810181811067ffffffffffffffff82111715612d1c57612d1b612dcc565b5b80604052505050565b6000612d3082612c76565b91507fffffffffffffffffffffffffffffffffffffffffffffffffffffffffffffffff821415612d6357612d62612d6e565b5b600182019050919050565b7f4e487b7100000000000000000000000000000000000000000000000000000000600052601160045260246000fd5b7f4e487b7100000000000000000000000000000000000000000000000000000000600052602260045260246000fd5b7f4e487b7100000000000000000000000000000000000000000000000000000000600052604160045260246000fd5b600060033d1115612e1a5760046000803e612e17600051612e2e565b90505b90565b6000601f19601f8301169050919050565b60008160e01c9050919050565b7f455243313135353a207472616e7366657220746f206e6f6e204552433131353560008201527f526563656976657220696d706c656d656e746572000000000000000000000000602082015250565b7f455243313135353a204552433131353552656365697665722072656a6563746560008201527f6420746f6b656e73000000000000000000000000000000000000000000000000602082015250565b7f455243313135353a2062616c616e636520717565727920666f7220746865207a60008201527f65726f2061646472657373000000000000000000000000000000000000000000602082015250565b7f4f776e61626c653a206e6577206f776e657220697320746865207a65726f206160008201527f6464726573730000000000000000000000000000000000000000000000000000602082015250565b7f455243313135353a206275726e20616d6f756e7420657863656564732062616c60008201527f616e636500000000000000000000000000000000000000000000000000000000602082015250565b7f455243313135353a2063616c6c6572206973206e6f74206f776e6572206e6f7260008201527f20617070726f7665640000000000000000000000000000000000000000000000602082015250565b7f455243313135353a207472616e7366657220746f20746865207a65726f20616460008201527f6472657373000000000000000000000000000000000000000000000000000000602082015250565b7f455243313135353a207472616e736665722063616c6c6572206973206e6f742060008201527f6f776e6572206e6f7220617070726f7665640000000000000000000000000000602082015250565b7f455243313135353a206275726e2066726f6d20746865207a65726f206164647260008201527f6573730000000000000000000000000000000000000000000000000000000000602082015250565b7f455243313135353a20696e73756666696369656e742062616c616e636520666f60008201527f72207472616e7366657200000000000000000000000000000000000000000000602082015250565b7f4f776e61626c653a2063616c6c6572206973206e6f7420746865206f776e6572600082015250565b7f455243313135353a2073657474696e6720617070726f76616c2073746174757360008201527f20666f722073656c660000000000000000000000000000000000000000000000602082015250565b7f455243313135353a206163636f756e747320616e6420696473206c656e67746860008201527f206d69736d617463680000000000000000000000000000000000000000000000602082015250565b7f455243313135353a2069647320616e6420616d6f756e7473206c656e6774682060008201527f6d69736d61746368000000000000000000000000000000000000000000000000602082015250565b7f455243313135353a206d696e7420746f20746865207a65726f2061646472657360008201527f7300000000000000000000000000000000000000000000000000000000000000602082015250565b600060443d10156132c657613349565b6132ce612a85565b60043d036004823e80513d602482011167ffffffffffffffff821117156132f6575050613349565b808201805167ffffffffffffffff8111156133145750505050613349565b80602083010160043d038501811115613331575050505050613349565b61334082602001850186612cf4565b82955050505050505b90565b61335581612c0c565b811461336057600080fd5b50565b61336c81612c1e565b811461337757600080fd5b50565b61338381612c2a565b811461338e57600080fd5b50565b61339a81612c76565b81146133a557600080fd5b5056fea2646970667358221220c12ea9addc47a88be9edeec3512e5f171ab3ed3aa269c6add6b6a2fe66479fb264736f6c63430008040033",
  "linkReferences": {},
  "deployedLinkReferences": {}
}