{
  "_format": "hh-sol-artifact-1",
  "contractName": "Token",
  "sourceName": "contracts/RewardToken.sol",
  "abi": [
    {
      "inputs": [
        {
          "internalType": "address",
          "name": "marketAddress",
          "type": "address"
        }
      ],
      "stateMutability": "nonpayable",
      "type": "constructor"
    },
    {
      "anonymous": false,
      "inputs": [
        {
          "indexed": true,
          "internalType": "address",
          "name": "owner",
          "type": "address"
        },
        {
          "indexed": true,
          "internalType": "address",
          "name": "spender",
          "type": "address"
        },
        {
          "indexed": false,
          "internalType": "uint256",
          "name": "value",
          "type": "uint256"
        }
      ],
      "name": "Approval",
      "type": "event"
    },
    {
      "anonymous": false,
      "inputs": [
        {
          "indexed": true,
          "internalType": "address",
          "name": "from",
          "type": "address"
        },
        {
          "indexed": true,
          "internalType": "address",
          "name": "to",
          "type": "address"
        },
        {
          "indexed": false,
          "internalType": "uint256",
          "name": "value",
          "type": "uint256"
        }
      ],
      "name": "Transfer",
      "type": "event"
    },
    {
      "inputs": [
        {
          "internalType": "address",
          "name": "owner",
          "type": "address"
        },
        {
          "internalType": "address",
          "name": "spender",
          "type": "address"
        }
      ],
      "name": "allowance",
      "outputs": [
        {
          "internalType": "uint256",
          "name": "",
          "type": "uint256"
        }
      ],
      "stateMutability": "view",
      "type": "function"
    },
    {
      "inputs": [
        {
          "internalType": "address",
          "name": "spender",
          "type": "address"
        },
        {
          "internalType": "uint256",
          "name": "amount",
          "type": "uint256"
        }
      ],
      "name": "approve",
      "outputs": [
        {
          "internalType": "bool",
          "name": "",
          "type": "bool"
        }
      ],
      "stateMutability": "nonpayable",
      "type": "function"
    },
    {
      "inputs": [
        {
          "internalType": "address",
          "name": "account",
          "type": "address"
        }
      ],
      "name": "balanceOf",
      "outputs": [
        {
          "internalType": "uint256",
          "name": "",
          "type": "uint256"
        }
      ],
      "stateMutability": "view",
      "type": "function"
    },
    {
      "inputs": [],
      "name": "decimals",
      "outputs": [
        {
          "internalType": "uint8",
          "name": "",
          "type": "uint8"
        }
      ],
      "stateMutability": "view",
      "type": "function"
    },
    {
      "inputs": [
        {
          "internalType": "address",
          "name": "spender",
          "type": "address"
        },
        {
          "internalType": "uint256",
          "name": "subtractedValue",
          "type": "uint256"
        }
      ],
      "name": "decreaseAllowance",
      "outputs": [
        {
          "internalType": "bool",
          "name": "",
          "type": "bool"
        }
      ],
      "stateMutability": "nonpayable",
      "type": "function"
    },
    {
      "inputs": [
        {
          "internalType": "address",
          "name": "spender",
          "type": "address"
        },
        {
          "internalType": "uint256",
          "name": "addedValue",
          "type": "uint256"
        }
      ],
      "name": "increaseAllowance",
      "outputs": [
        {
          "internalType": "bool",
          "name": "",
          "type": "bool"
        }
      ],
      "stateMutability": "nonpayable",
      "type": "function"
    },
    {
      "inputs": [
        {
          "internalType": "address",
          "name": "target",
          "type": "address"
        }
      ],
      "name": "mint",
      "outputs": [],
      "stateMutability": "nonpayable",
      "type": "function"
    },
    {
      "inputs": [],
      "name": "name",
      "outputs": [
        {
          "internalType": "string",
          "name": "",
          "type": "string"
        }
      ],
      "stateMutability": "view",
      "type": "function"
    },
    {
      "inputs": [],
      "name": "symbol",
      "outputs": [
        {
          "internalType": "string",
          "name": "",
          "type": "string"
        }
      ],
      "stateMutability": "view",
      "type": "function"
    },
    {
      "inputs": [],
      "name": "totalSupply",
      "outputs": [
        {
          "internalType": "uint256",
          "name": "",
          "type": "uint256"
        }
      ],
      "stateMutability": "view",
      "type": "function"
    },
    {
      "inputs": [
        {
          "internalType": "address",
          "name": "to",
          "type": "address"
        },
        {
          "internalType": "uint256",
          "name": "amount",
          "type": "uint256"
        }
      ],
      "name": "transfer",
      "outputs": [
        {
          "internalType": "bool",
          "name": "",
          "type": "bool"
        }
      ],
      "stateMutability": "nonpayable",
      "type": "function"
    },
    {
      "inputs": [
        {
          "internalType": "address",
          "name": "from",
          "type": "address"
        },
        {
          "internalType": "address",
          "name": "to",
          "type": "address"
        },
        {
          "internalType": "uint256",
          "name": "amount",
          "type": "uint256"
        }
      ],
      "name": "transferFrom",
      "outputs": [
        {
          "internalType": "bool",
          "name": "",
          "type": "bool"
        }
      ],
      "stateMutability": "nonpayable",
      "type": "function"
    }
  ],
  "bytecode": "0x60806040523480156200001157600080fd5b5060405162001dfe38038062001dfe833981810160405281019062000037919062000373565b6040518060400160405280600381526020017f44475400000000000000000000000000000000000000000000000000000000008152506040518060400160405280600381526020017f44475400000000000000000000000000000000000000000000000000000000008152508160039080519060200190620000bb929190620002ac565b508060049080519060200190620000d4929190620002ac565b5050506200011981620000ec6200012060201b60201c565b60ff16600a620000fd9190620004df565b629896806200010d91906200061c565b6200012960201b60201c565b506200079f565b60006012905090565b600073ffffffffffffffffffffffffffffffffffffffff168273ffffffffffffffffffffffffffffffffffffffff1614156200019c576040517f08c379a00000000000000000000000000000000000000000000000000000000081526004016200019390620003d7565b60405180910390fd5b620001b060008383620002a260201b60201c565b8060026000828254620001c4919062000427565b92505081905550806000808473ffffffffffffffffffffffffffffffffffffffff1673ffffffffffffffffffffffffffffffffffffffff16815260200190815260200160002060008282546200021b919062000427565b925050819055508173ffffffffffffffffffffffffffffffffffffffff16600073ffffffffffffffffffffffffffffffffffffffff167fddf252ad1be2c89b69c2b068fc378daa952ba7f163c4a11628f55a4df523b3ef83604051620002829190620003f9565b60405180910390a36200029e60008383620002a760201b60201c565b5050565b505050565b505050565b828054620002ba90620006bb565b90600052602060002090601f016020900481019282620002de57600085556200032a565b82601f10620002f957805160ff19168380011785556200032a565b828001600101855582156200032a579182015b82811115620003295782518255916020019190600101906200030c565b5b5090506200033991906200033d565b5090565b5b80821115620003585760008160009055506001016200033e565b5090565b6000815190506200036d8162000785565b92915050565b6000602082840312156200038657600080fd5b600062000396848285016200035c565b91505092915050565b6000620003ae601f8362000416565b9150620003bb826200075c565b602082019050919050565b620003d181620006b1565b82525050565b60006020820190508181036000830152620003f2816200039f565b9050919050565b6000602082019050620004106000830184620003c6565b92915050565b600082825260208201905092915050565b60006200043482620006b1565b91506200044183620006b1565b9250827fffffffffffffffffffffffffffffffffffffffffffffffffffffffffffffffff03821115620004795762000478620006f1565b5b828201905092915050565b6000808291508390505b6001851115620004d657808604811115620004ae57620004ad620006f1565b5b6001851615620004be5780820291505b8081029050620004ce856200074f565b94506200048e565b94509492505050565b6000620004ec82620006b1565b9150620004f983620006b1565b9250620005287fffffffffffffffffffffffffffffffffffffffffffffffffffffffffffffffff848462000530565b905092915050565b60008262000542576001905062000615565b8162000552576000905062000615565b81600181146200056b57600281146200057657620005ac565b600191505062000615565b60ff8411156200058b576200058a620006f1565b5b8360020a915084821115620005a557620005a4620006f1565b5b5062000615565b5060208310610133831016604e8410600b8410161715620005e65782820a905083811115620005e057620005df620006f1565b5b62000615565b620005f5848484600162000484565b925090508184048111156200060f576200060e620006f1565b5b81810290505b9392505050565b60006200062982620006b1565b91506200063683620006b1565b9250817fffffffffffffffffffffffffffffffffffffffffffffffffffffffffffffffff0483118215151615620006725762000671620006f1565b5b828202905092915050565b60006200068a8262000691565b9050919050565b600073ffffffffffffffffffffffffffffffffffffffff82169050919050565b6000819050919050565b60006002820490506001821680620006d457607f821691505b60208210811415620006eb57620006ea62000720565b5b50919050565b7f4e487b7100000000000000000000000000000000000000000000000000000000600052601160045260246000fd5b7f4e487b7100000000000000000000000000000000000000000000000000000000600052602260045260246000fd5b60008160011c9050919050565b7f45524332303a206d696e7420746f20746865207a65726f206164647265737300600082015250565b62000790816200067d565b81146200079c57600080fd5b50565b61164f80620007af6000396000f3fe608060405234801561001057600080fd5b50600436106100b45760003560e01c80636a627842116100715780636a627842146101a357806370a08231146101bf57806395d89b41146101ef578063a457c2d71461020d578063a9059cbb1461023d578063dd62ed3e1461026d576100b4565b806306fdde03146100b9578063095ea7b3146100d757806318160ddd1461010757806323b872dd14610125578063313ce567146101555780633950935114610173575b600080fd5b6100c161029d565b6040516100ce9190610ef4565b60405180910390f35b6100f160048036038101906100ec9190610d1f565b61032f565b6040516100fe9190610ed9565b60405180910390f35b61010f610352565b60405161011c9190611016565b60405180910390f35b61013f600480360381019061013a9190610cd0565b61035c565b60405161014c9190610ed9565b60405180910390f35b61015d61038b565b60405161016a9190611031565b60405180910390f35b61018d60048036038101906101889190610d1f565b610394565b60405161019a9190610ed9565b60405180910390f35b6101bd60048036038101906101b89190610c6b565b6103cb565b005b6101d960048036038101906101d49190610c6b565b6103fc565b6040516101e69190611016565b60405180910390f35b6101f7610444565b6040516102049190610ef4565b60405180910390f35b61022760048036038101906102229190610d1f565b6104d6565b6040516102349190610ed9565b60405180910390f35b61025760048036038101906102529190610d1f565b61054d565b6040516102649190610ed9565b60405180910390f35b61028760048036038101906102829190610c94565b610570565b6040516102949190611016565b60405180910390f35b6060600380546102ac90611311565b80601f01602080910402602001604051908101604052809291908181526020018280546102d890611311565b80156103255780601f106102fa57610100808354040283529160200191610325565b820191906000526020600020905b81548152906001019060200180831161030857829003601f168201915b5050505050905090565b60008061033a6105f7565b90506103478185856105ff565b600191505092915050565b6000600254905090565b6000806103676105f7565b90506103748582856107ca565b61037f858585610856565b60019150509392505050565b60006012905090565b60008061039f6105f7565b90506103c08185856103b18589610570565b6103bb9190611068565b6105ff565b600191505092915050565b6103f9816103d761038b565b60ff16600a6103e69190611111565b629896806103f4919061122f565b610ad7565b50565b60008060008373ffffffffffffffffffffffffffffffffffffffff1673ffffffffffffffffffffffffffffffffffffffff168152602001908152602001600020549050919050565b60606004805461045390611311565b80601f016020809104026020016040519081016040528092919081815260200182805461047f90611311565b80156104cc5780601f106104a1576101008083540402835291602001916104cc565b820191906000526020600020905b8154815290600101906020018083116104af57829003601f168201915b5050505050905090565b6000806104e16105f7565b905060006104ef8286610570565b905083811015610534576040517f08c379a000000000000000000000000000000000000000000000000000000000815260040161052b90610fd6565b60405180910390fd5b61054182868684036105ff565b60019250505092915050565b6000806105586105f7565b9050610565818585610856565b600191505092915050565b6000600160008473ffffffffffffffffffffffffffffffffffffffff1673ffffffffffffffffffffffffffffffffffffffff16815260200190815260200160002060008373ffffffffffffffffffffffffffffffffffffffff1673ffffffffffffffffffffffffffffffffffffffff16815260200190815260200160002054905092915050565b600033905090565b600073ffffffffffffffffffffffffffffffffffffffff168373ffffffffffffffffffffffffffffffffffffffff16141561066f576040517f08c379a000000000000000000000000000000000000000000000000000000000815260040161066690610fb6565b60405180910390fd5b600073ffffffffffffffffffffffffffffffffffffffff168273ffffffffffffffffffffffffffffffffffffffff1614156106df576040517f08c379a00000000000000000000000000000000000000000000000000000000081526004016106d690610f36565b60405180910390fd5b80600160008573ffffffffffffffffffffffffffffffffffffffff1673ffffffffffffffffffffffffffffffffffffffff16815260200190815260200160002060008473ffffffffffffffffffffffffffffffffffffffff1673ffffffffffffffffffffffffffffffffffffffff168152602001908152602001600020819055508173ffffffffffffffffffffffffffffffffffffffff168373ffffffffffffffffffffffffffffffffffffffff167f8c5be1e5ebec7d5bd14f71427d1e84f3dd0314c0f7b2291e5b200ac8c7c3b925836040516107bd9190611016565b60405180910390a3505050565b60006107d68484610570565b90507fffffffffffffffffffffffffffffffffffffffffffffffffffffffffffffffff81146108505781811015610842576040517f08c379a000000000000000000000000000000000000000000000000000000000815260040161083990610f56565b60405180910390fd5b61084f84848484036105ff565b5b50505050565b600073ffffffffffffffffffffffffffffffffffffffff168373ffffffffffffffffffffffffffffffffffffffff1614156108c6576040517f08c379a00000000000000000000000000000000000000000000000000000000081526004016108bd90610f96565b60405180910390fd5b600073ffffffffffffffffffffffffffffffffffffffff168273ffffffffffffffffffffffffffffffffffffffff161415610936576040517f08c379a000000000000000000000000000000000000000000000000000000000815260040161092d90610f16565b60405180910390fd5b610941838383610c37565b60008060008573ffffffffffffffffffffffffffffffffffffffff1673ffffffffffffffffffffffffffffffffffffffff168152602001908152602001600020549050818110156109c7576040517f08c379a00000000000000000000000000000000000000000000000000000000081526004016109be90610f76565b60405180910390fd5b8181036000808673ffffffffffffffffffffffffffffffffffffffff1673ffffffffffffffffffffffffffffffffffffffff16815260200190815260200160002081905550816000808573ffffffffffffffffffffffffffffffffffffffff1673ffffffffffffffffffffffffffffffffffffffff1681526020019081526020016000206000828254610a5a9190611068565b925050819055508273ffffffffffffffffffffffffffffffffffffffff168473ffffffffffffffffffffffffffffffffffffffff167fddf252ad1be2c89b69c2b068fc378daa952ba7f163c4a11628f55a4df523b3ef84604051610abe9190611016565b60405180910390a3610ad1848484610c3c565b50505050565b600073ffffffffffffffffffffffffffffffffffffffff168273ffffffffffffffffffffffffffffffffffffffff161415610b47576040517f08c379a0000000000000000000000000000000000000000000000000000000008152600401610b3e90610ff6565b60405180910390fd5b610b5360008383610c37565b8060026000828254610b659190611068565b92505081905550806000808473ffffffffffffffffffffffffffffffffffffffff1673ffffffffffffffffffffffffffffffffffffffff1681526020019081526020016000206000828254610bba9190611068565b925050819055508173ffffffffffffffffffffffffffffffffffffffff16600073ffffffffffffffffffffffffffffffffffffffff167fddf252ad1be2c89b69c2b068fc378daa952ba7f163c4a11628f55a4df523b3ef83604051610c1f9190611016565b60405180910390a3610c3360008383610c3c565b5050565b505050565b505050565b600081359050610c50816115eb565b92915050565b600081359050610c6581611602565b92915050565b600060208284031215610c7d57600080fd5b6000610c8b84828501610c41565b91505092915050565b60008060408385031215610ca757600080fd5b6000610cb585828601610c41565b9250506020610cc685828601610c41565b9150509250929050565b600080600060608486031215610ce557600080fd5b6000610cf386828701610c41565b9350506020610d0486828701610c41565b9250506040610d1586828701610c56565b9150509250925092565b60008060408385031215610d3257600080fd5b6000610d4085828601610c41565b9250506020610d5185828601610c56565b9150509250929050565b610d648161129b565b82525050565b6000610d758261104c565b610d7f8185611057565b9350610d8f8185602086016112de565b610d98816113a1565b840191505092915050565b6000610db0602383611057565b9150610dbb826113bf565b604082019050919050565b6000610dd3602283611057565b9150610dde8261140e565b604082019050919050565b6000610df6601d83611057565b9150610e018261145d565b602082019050919050565b6000610e19602683611057565b9150610e2482611486565b604082019050919050565b6000610e3c602583611057565b9150610e47826114d5565b604082019050919050565b6000610e5f602483611057565b9150610e6a82611524565b604082019050919050565b6000610e82602583611057565b9150610e8d82611573565b604082019050919050565b6000610ea5601f83611057565b9150610eb0826115c2565b602082019050919050565b610ec4816112c7565b82525050565b610ed3816112d1565b82525050565b6000602082019050610eee6000830184610d5b565b92915050565b60006020820190508181036000830152610f0e8184610d6a565b905092915050565b60006020820190508181036000830152610f2f81610da3565b9050919050565b60006020820190508181036000830152610f4f81610dc6565b9050919050565b60006020820190508181036000830152610f6f81610de9565b9050919050565b60006020820190508181036000830152610f8f81610e0c565b9050919050565b60006020820190508181036000830152610faf81610e2f565b9050919050565b60006020820190508181036000830152610fcf81610e52565b9050919050565b60006020820190508181036000830152610fef81610e75565b9050919050565b6000602082019050818103600083015261100f81610e98565b9050919050565b600060208201905061102b6000830184610ebb565b92915050565b60006020820190506110466000830184610eca565b92915050565b600081519050919050565b600082825260208201905092915050565b6000611073826112c7565b915061107e836112c7565b9250827fffffffffffffffffffffffffffffffffffffffffffffffffffffffffffffffff038211156110b3576110b2611343565b5b828201905092915050565b6000808291508390505b6001851115611108578086048111156110e4576110e3611343565b5b60018516156110f35780820291505b8081029050611101856113b2565b94506110c8565b94509492505050565b600061111c826112c7565b9150611127836112c7565b92506111547fffffffffffffffffffffffffffffffffffffffffffffffffffffffffffffffff848461115c565b905092915050565b60008261116c5760019050611228565b8161117a5760009050611228565b8160018114611190576002811461119a576111c9565b6001915050611228565b60ff8411156111ac576111ab611343565b5b8360020a9150848211156111c3576111c2611343565b5b50611228565b5060208310610133831016604e8410600b84101617156111fe5782820a9050838111156111f9576111f8611343565b5b611228565b61120b84848460016110be565b9250905081840481111561122257611221611343565b5b81810290505b9392505050565b600061123a826112c7565b9150611245836112c7565b9250817fffffffffffffffffffffffffffffffffffffffffffffffffffffffffffffffff048311821515161561127e5761127d611343565b5b828202905092915050565b6000611294826112a7565b9050919050565b60008115159050919050565b600073ffffffffffffffffffffffffffffffffffffffff82169050919050565b6000819050919050565b600060ff82169050919050565b60005b838110156112fc5780820151818401526020810190506112e1565b8381111561130b576000848401525b50505050565b6000600282049050600182168061132957607f821691505b6020821081141561133d5761133c611372565b5b50919050565b7f4e487b7100000000000000000000000000000000000000000000000000000000600052601160045260246000fd5b7f4e487b7100000000000000000000000000000000000000000000000000000000600052602260045260246000fd5b6000601f19601f8301169050919050565b60008160011c9050919050565b7f45524332303a207472616e7366657220746f20746865207a65726f206164647260008201527f6573730000000000000000000000000000000000000000000000000000000000602082015250565b7f45524332303a20617070726f766520746f20746865207a65726f20616464726560008201527f7373000000000000000000000000000000000000000000000000000000000000602082015250565b7f45524332303a20696e73756666696369656e7420616c6c6f77616e6365000000600082015250565b7f45524332303a207472616e7366657220616d6f756e742065786365656473206260008201527f616c616e63650000000000000000000000000000000000000000000000000000602082015250565b7f45524332303a207472616e736665722066726f6d20746865207a65726f20616460008201527f6472657373000000000000000000000000000000000000000000000000000000602082015250565b7f45524332303a20617070726f76652066726f6d20746865207a65726f2061646460008201527f7265737300000000000000000000000000000000000000000000000000000000602082015250565b7f45524332303a2064656372656173656420616c6c6f77616e63652062656c6f7760008201527f207a65726f000000000000000000000000000000000000000000000000000000602082015250565b7f45524332303a206d696e7420746f20746865207a65726f206164647265737300600082015250565b6115f481611289565b81146115ff57600080fd5b50565b61160b816112c7565b811461161657600080fd5b5056fea26469706673582212208b9d4e273332522b89454fc12488f93c7b57332025ef2a67435e81f73dcb273d64736f6c63430008040033",
  "linkReferences": {},
  "deployedLinkReferences": {}
}